:020000040800F2
:1000000000080020BD030008CD030008D10300084C
:10001000D5030008D9030008DD0300080000000034
:10002000000000000000000000000000E1030008E4
:10003000E503000800000000E9030008ED030008E4
:10004000F1030008F5030008F9030008FD030008A8
:100050000104000805040008090400080D04000854
:100060001104000815040008190400081D04000804
:100070002104000825040008290400082D040008B4
:100080003104000835040008390400083D04000864
:100090004104000845040008490400084D04000814
:1000A0005104000855040008590400085D040008C4
:1000B0006104000865040008690400086D04000874
:1000C0007104000875040008790400087D04000824
:1000D0008104000885040008890400088D040008D4
:1000E00091040008950400089904000880B53E4971
:1000F000086850F0010008603C4A13683C4803401F
:1001000013600B683B4803400B60086830F48020A4
:100110000860106830F4FE0010605FF41F0036497C
:10012000086000F005F85FF000603449086001BD28
:1001300080B500F001F801BD82B0002001900020E0
:1001400000902949086850F480300860086810F46D
:10015000003000900198401C01900098002803D1C5
:100160000198B0F5A06FF1D10868800302D5012095
:10017000009001E0002000900098012831D1204833
:10018000026852F0100202600268D208D2000260D7
:10019000026852F0020202601448026802600268BB
:1001A0000260026852F480620260026832F47C12DB
:1001B0000260026852F4E81202600A6852F080722B
:1001C0000A600A689201FCD501688908890001600B
:1001D000016851F002010160016811F00C01082969
:1001E000FAD102B070470000001002400410024033
:1001F0000000FFF8FFFFF6FE0810024008ED00E0E7
:1002000000200240F0B4002200220022002200223E
:100210000022CB7813F00F03CA78D20601D58A7872
:1002200013430A88D2B2002A20D0066800241AE0BC
:10023000CA78482A16D1A740076113E0012717FAA8
:1002400004F50A882A40AA420CD1A2000F25954045
:10025000AE4313FA02F232431600CA78282AE7D1D5
:10026000A7404761641C082CE8D306600A88B2F5F1
:10027000807F26DB4668002420E0012714F1080572
:1002800017FA05F50A882A40AA4216D1A2000F25BE
:100290009540AE4313FA02F232431600CA78282A78
:1002A00004D114F1080217FA02F24261CA78482A0E
:1002B00003D114F1080297400761641C082CDCD3B9
:1002C0004660F0BC7047D2B2002A02D089B2016108
:1002D00001E089B2416170471CB50120ADF8000012
:1002E00003208DF8020010208DF803000A4C6946A7
:1002F0002000FFF787FF012201212000FFF7E3FF25
:10030000642000F00BF8002201212000FFF7DBFF42
:10031000642000F003F8EEE70008014038B504005F
:10032000002504E04FF47A7000F008F86D1C2800F6
:10033000210080B289B28842F4D331BD81B080B24D
:1003400011214843009002E00098401E0090009860
:100350000028F9D101B0704700F00DF8002801D055
:10036000AFF30080AFF300800020AFF30080FFF711
:10037000B3FF00F002F80120704700F001B8000060
:100380000746384600F002F8FBE7000080B5AFF3FF
:100390000080024A11001820ABBEFBE726000200D5
:1003A0000548014603B4684680F30988AFF300802E
:1003B000AFF30080FFF7D0FFA5EDF5FE01488047C1
:1003C00001480047ED000008A1030008FFF7FEBF49
:1003D000FFF7FEBFFFF7FEBFFFF7FEBFFFF7FEBF51
:1003E000FFF7FEBFFFF7FEBFFFF7FEBFFFF7FEBF41
:1003F000FFF7FEBFFFF7FEBFFFF7FEBFFFF7FEBF31
:10040000FFF7FEBFFFF7FEBFFFF7FEBFFFF7FEBF20
:10041000FFF7FEBFFFF7FEBFFFF7FEBFFFF7FEBF10
:10042000FFF7FEBFFFF7FEBFFFF7FEBFFFF7FEBF00
:10043000FFF7FEBFFFF7FEBFFFF7FEBFFFF7FEBFF0
:10044000FFF7FEBFFFF7FEBFFFF7FEBFFFF7FEBFE0
:10045000FFF7FEBFFFF7FEBFFFF7FEBFFFF7FEBFD0
:10046000FFF7FEBFFFF7FEBFFFF7FEBFFFF7FEBFC0
:10047000FFF7FEBFFFF7FEBFFFF7FEBFFFF7FEBFB0
:10048000FFF7FEBFFFF7FEBFFFF7FEBFFFF7FEBFA0
:0C049000FFF7FEBFFFF7FEBFFFF7FEBF47
:04000005080003A14B
:00000001FF
